:020000040800F2
:10000000B0040020DD010008C7110008DB10000863
:10001000C5110008E90200080D16000800000000E4
:100020000000000000000000000000000D150008A6
:10003000EB02000800000000C91100080F150008BD
:10004000F7010008F7010008F7010008F7010008B0
:10005000F7010008F7010008F7010008F7010008A0
:10006000F7010008F7010008F7010008F701000890
:10007000F7010008F7010008F7010008F701000880
:10008000F7010008F7010008F7010008F701000870
:10009000F7010008F7010008F7010008F701000860
:1000A000F7010008F7010008F7010008F701000850
:1000B000F7010008F7010008F7010008F701000840
:1000C000F7010008F7010008F7010008F701000830
:1000D000F7010008F7010008F7010008F701000820
:1000E000F7010008F7010008F7010008F701000810
:1000F000F7010008F7010008F7010008F701000800
:10010000F7010008F7010008F7010008F7010008EF
:10011000F7010008F7010008F7010008F7010008DF
:10012000F7010008F7010008F7010008F7010008CF
:10013000F7010008F7010008F7010008F7010008BF
:10014000F7010008F7010008F7010008F7010008AF
:10015000F7010008F7010008F7010008F70100089F
:10016000F7010008F7010008F7010008F70100088F
:10017000F7010008F7010008F7010008000000007F
:10018000F7010008F7010008F7010008F70100086F
:10019000F7010008F7010008F7010008F70100085F
:1001A000F7010008F7010008F7010008F70100084F
:1001B000F7010008F7010008F7010008F70100083F
:1001C000F7010008F7010008DFF80CD000F07AF81A
:1001D0000048004751160008B00400200648804738
:1001E00006480047FEE7FEE7FEE7FEE7FEE7FEE71C
:1001F000FEE7FEE7FEE7FEE7B9150008C9010008C3
:100200002DE9F05F0546002092469B46884606464B
:10021000814640241BE0284641464746224600F0DE
:1002200041F853465A46C01A914110D31146184618
:10023000224600F028F82D1A67EB01084F462246A7
:100240000120002100F01FF817EB00094E41201E8D
:10025000A4F10104DFDC484631462A464346BDE8A6
:10026000F09FD2B201E000F8012B491EFBD270478B
:100270000022F6E710B513460A4604461946FFF772
:10028000F0FF204610BD202A04DB203A00FA02F1DC
:10029000002070479140C2F1200320FA03F3194374
:1002A00090407047202A04DB203A21FA02F0002116
:1002B000704721FA02F3D040C2F120029140084376
:1002C00019467047064C074D06E0E06840F0010310
:1002D00094E8070098471034AC42F6D3FFF778FF54
:1002E000C0170008E0170008FEE770470122024827
:1002F000022100F052B90000002002402DE9F04137
:10030000876D044600F04EF9064694F83500002546
:10031000022806D080206065012084F83450BDE8B2
:10032000F0812068016821F01601016020684169B0
:1003300021F080014161206C08B9A06C20B12068D7
:10034000016821F0080101602068016821F00101C5
:1003500001600CE000F026F9801B052807D9202158
:100360006165032084F8345084F83500D7E72068AD
:100370000068C007EED194F85C203F200121904036
:10038000B86084F8345084F835100020C7E70000C6
:1003900070B5044600F006F90546601C02D004481A
:1003A0000078044400F0FEF8401BA042FAD370BD70
:1003B000100000202DE9F84FDFF89CE100224FF0FB
:1003C00001084FF0030B4FF00F0A00BF0B6808FA4B
:1003D00002F42340A34271D14D68022D01D0122DA9
:1003E0000FD1D5080E69570700EB8505A9462D6A80
:1003F000FF0E0AFA07FCBE4025EA0C052E43C9F899
:1004000020600F79550006680BFA05FC07F003071A
:1004100026EA0C06AF40374307604E68012E05D030
:10042000022E03D0112E01D0122E0ED18668CF6875
:1004300026EA0C06AF403743876046680F79A6432B
:10044000C7F30017974037434760C4688E6824EAB3
:100450000C04AE402643C6604C68E40075D53F4CA2
:10046000256845F480452560246822F00306950739
:1004700004F4804400943A4C2D0F2644D6F80848E2
:10048000DFF8E0C00AFA05F7604524EA070401D165
:1004900000272EE0344FB84201D1012729E0334F25
:1004A000B84201D1022724E0314FB84201D10327DD
:1004B0001FE0304FB84202D104271AE045E02E4F2A
:1004C000B84201D1052714E02C4FB84201D10627CC
:1004D0000FE02B4FB84201D107270AE0294FB8425D
:1004E00001D1082705E0284FB84201D1092700E0D3
:1004F0000A27AF4027437546C6F808784E68DEF8ED
:100500000040F60324EA030400D51C43124E2C607D
:10051000361D4D683468AD0324EA030400D51C433E
:100520000D4F346008374D683C68ED0224EA03043F
:1005300000D51C43084D3C600C354E682C68B60253
:1005400024EA030400D51C432C60521C102AFFF43B
:100550003DAFBDE8F88F0000003C01404438024048
:100560000030014000000240000402400008024048
:10057000000C02400010024000140240001802402B
:10058000001C02400020024000240240426931EA7F
:10059000020200D10904816170470AB1816170478C
:1005A0000904FBE701488068704700001000002044
:1005B0000248816802781144816070471000002071
:1005C000032010B500F060F8002000F005F800F0FE
:1005D00023F8002010BD000070B50D4D04464FF407
:1005E0007A700C4A29781268B0FBF1F0B2FBF0F097
:1005F00000F060FD48B9102C07D200222146501EA1
:1006000000F022F800206C6070BD012070BD000079
:10061000100000201C0000200A4808B5016841F0C5
:1006200080510160006800F0805000900548001D76
:10063000016841F480410160006800F4804000904E
:1006400008BD0000403802400E4BF0B41B680D4658
:10065000C3F30223C3F10706042E00D90426191D93
:10066000072901D2002300E0DB1E012404FA06F171
:100670009C40491E2940641E994014402143F0BC0F
:1006800000F0C5BF0CED00E0064900F0070210B510
:100690004FF6FF040868044B204040EA022018434C
:1006A000086010BD0CED00E00000FA051848F8B530
:1006B000016841F0805101600068164C00F08050E4
:1006C0000090206840F480302060FFF76BFF4FF40B
:1006D0007A76054605E000BFFFF764FF401BB04295
:1006E0000FD86068C003F7D5206840F40030206060
:1006F000FFF758FF054606E0FFF754FF401BB042E6
:1007000001D90320F8BD60688003F5D50020F8BD4D
:1007100040380240007000400248016841F4807196
:100720000160704700700040F8B500250446FFF7EF
:1007300039FF064694F84100800731D5002084F83F
:1007400040002068016849070BD5016821F00401C9
:100750000160E06BFFF7D2FD18B1606C40F004005F
:1007600060642068016841F002010160A06C012210
:10077000022133460090204600F06EFE05000FD1A6
:1007800021680220C8600022A06C2021334600901E
:10079000204600F061FE050002D1012084F84100EE
:1007A0002846F8BD2DE9F84F1E4615468A460446F0
:1007B000FFF7F8FE814694F8400001280ED001278B
:1007C0004FF0000884F8407094F84100012807D0E9
:1007D0005FF0020084F84080BDE8F88F0220FBE75C
:1007E0004221C4F8448084F84110002220214B4665
:1007F0002046009600F030FE0028EBD121682868E2
:1008000088622168686848622168A868C8622068B0
:100810002969026822F4400242F480021143016017
:10082000E9684FF000622046CAF82810514600F0EF
:10083000F0FC01224B4608212046009600F00CFEF9
:100840000028C7D122680821D16084F84170C1E72F
:100850002DE9F84F17468B460446FFF7A3FE824664
:1008600094F8400001280ED001264FF0000884F8CB
:10087000406094F84100012807D0022584F84080A8
:100880002846BDE8F88F0220FBE74FF00209C4F8C4
:10089000448084F84190002220215346204600974E
:1008A00000F0DAFD0500E9D100225946204600F0AB
:1008B000B0FCDBF8240058B901225346022120463F
:1008C000009700F0C9FD0500D8D12168C1F80C904F
:1008D00084F84160D2E70000F8B50446FFF762FEF5
:1008E00007465CB194F84000012809D0012684F83D
:1008F0004060002594F8410020B10BE00120F8BDD4
:100900000220F8BD84F84050204600F045F841F23E
:100910008830A06420686FF0FF03A168026803EBD1
:10092000012322F4F85119430160A06C0022202118
:100930003B460090204600F08FFD30BB2268D4E992
:10094000077C94F804E0E16813683943104F4CEADF
:100950000E6EDFF840C03B4041EA0E0119431160C2
:100960002168D4E90527B4F810E04B683A4303EA5C
:100970000C0343EA0E431A434A6021680A6842F0B6
:1009800001020A60656484F8416084F84050F8BD53
:100990002FFFFF00FEF8E0FF2DE9F04387B004468B
:1009A00014216846FFF764FC2B49206888424FD128
:1009B0002A48016841F002010160006800F002006D
:1009C000059026480838016841F01001016001686F
:1009D00001F010010591016841F002010160016818
:1009E00001F002010591016841F008010160006811
:1009F000092701AA4FF0040800F00800CDF8008094
:100A0000022469460025CDE904700326144882E8D3
:100A10007000FFF7CFFC0A21DFF848904020CDE9B5
:100A200003618DE8310069464846FFF7C3FC01AA1F
:100A3000CDF800806946484682E8F000FFF7BAFC2E
:100A40004FF4605069468DE8F1000748FFF7B2FCAB
:100A500007B0BDE8F0830000001000A03838024065
:100A60000010024000040240000C02402DE9F84F43
:100A700015460F460446FFF795FD824620688169BA
:100A800094F8403000F12009012B0DD001264FF0E1
:100A9000000884F8406094F84120012A06D0022022
:100AA00084F84080BDE8F88F0220FBE7C4F844805A
:100AB000B7B3222284F841200269521CA263026962
:100AC000521C62632763426922F0406242F08062F6
:100AD0004261206881610DE00621204600F0BCFCE7
:100AE000D8B999F80020206B411C21630270A06BDB
:100AF000401EA063A06B53464FF0010200950028F2
:100B0000EAD14FF00201204600F0A6FC28B9216886
:100B10000220C8602046FFF707FE84F84160BFE767
:100B2000FFE7616C012041F008016164B8E7000053
:100B30002DE9F84F15460F460446FFF733FD94F8AC
:100B4000401082462068012900F120090ED00126BC
:100B50004FF0000884F8406094F84110012907D054
:100B60005FF0020084F84080BDE8F88F0220FBE7C8
:100B7000C4F8448097B3122184F841100169491CDC
:100B8000E1620169491CA1626762416921F040612B
:100B900041610DE00421204600F05EFCD8B9606A96
:100BA000411C6162017889F80010E06A401EE06231
:100BB000E06A53464FF0010200950028EAD14FF059
:100BC0000201204600F048FC28B921680220C860D4
:100BD0002046FFF7A9FD84F84160C3E7FFE7616C99
:100BE000012041F008016164BCE700002DE9F047F5
:100BF00005000F4663D0444E306800F00F00B84245
:100C000009D2306820F00F0038433060306800F0BF
:100C10000F00B84253D128683C4C810712D54007D9
:100C200003D5206840F4E05020602878000703D501
:100C3000206840F460402060A968206820F0F0003F
:100C4000084320602878C0072AD0304968680839EE
:100C5000012810D00968022810D0890700292EDA4F
:100C6000216821F0030101432160FFF79BFC8046CE
:100C700041F288390DE009688903EFE78901EDE762
:100C8000FFF790FCA0EB0801494502D90320BDE81D
:100C9000F0876868216801F00C01B1EB800FEFD19B
:100CA000306800F00F00B8420BD9306820F00F0018
:100CB00038433060306800F00F00B84201D00120A6
:100CC000E5E72878400705D5E968206820F4E0507A
:100CD000084320602878000706D52869216821F498
:100CE000604141EAC000206000F016F82168084A1F
:100CF000C1F30311515CC840064908600020FFF7AA
:100D00006BFC0020C3E70000003C024008380240B2
:100D1000B01700081C000020154910B515480968D7
:100D200011F00C0213D01449042A0FD0082A0ED156
:100D30000F4C241F2268236802F03F025B0207D594
:100D40002068C0F38810A0FB010106E0084610BD32
:100D50002168C1F38811A1FB00010023FFF750FABD
:100D60002168C1F30141491C4900B0FBF1F010BDFD
:100D7000083802400024F40040787D012DE9F84F46
:100D800005004FF000076ED02878DFF81C93A9F11A
:100D9000040AC007AAF104044CD0D9F80010484650
:100DA000C1F38101012908D00068C0F38100022845
:100DB0000AD1DAF80000400206D52068800339D550
:100DC00068680028DFD035E06868B0F5803F0BD058
:100DD00010B1B0F5A02F11D0206820F48030206031
:100DE000206820F4802002E0206840F480302060F9
:100DF000686890B1FFF7D6FB06460AE0206840F429
:100E000080202060F0E700BFFFF7CCFB801B642848
:100E100072D820688003F7D50CE0FFF7C3FB0646C5
:100E200005E000BFFFF7BEFB801B6428F0D82068F8
:100E30008003F7D42878800742D5D9F800104846B7
:100E400011F00C0F08D00068C0F3810002280BD10C
:100E5000DAF80000400207D42068800718D5E86857
:100E6000012800D114E01CE1E8680028206817D0B0
:100E700040F001002060FFF795FB064605E000BF4B
:100E8000FFF790FB801B0228C2D820688007F7D5A7
:100E90002869216821F0F80141EAC00020600FE0D4
:100EA00020F001002060FFF77DFB064605E000BF53
:100EB000FFF778FB801B02281ED820688007F7D434
:100EC0002878000729D5784869696C300029804660
:100ED000016812D041F001010160FFF763FB064693
:100EE00005E000BFFFF75EFB801B022804D8D8F89E
:100EF00000008007F6D510E089E021F001010160D3
:100F0000FFF750FB064604E0FFF74CFB801B02286E
:100F10007DD8D8F800008007F6D4287840076BD534
:100F2000DFF8848108F13808D8F80000C0000BD43D
:100F3000D8F8001041F08051C8F80010D8F800002F
:100F4000012700F08050009058480168C90512D46C
:100F50000168834641F480710160FFF723FB064678
:100F600005E000BFFFF71EFB801B64284FD8DBF8AD
:100F70000000C005F6D54C4EA868683601280AD096
:100F800008B1052811D0306820F0010030603068C9
:100F900020F0040002E0306840F001003060A868F2
:100FA000A0B1FFF7FFFA83460CE0306840F0040080
:100FB0003060F0E7FFF7F6FAA0EB0B0141F2883062
:100FC000814266D830688007F4D50EE0FFF7EAFA70
:100FD000834607E0FFF7E6FAA0EB0B0141F2883009
:100FE000814256D830688007F4D42FB1D8F8001069
:100FF00021F08051C8F80010A869C8B3D9F80010D2
:10100000C1F3810102294CD00228206800E040E0B1
:1010100020F08070206003D0FFF7C4FA05463BE063
:10102000FFF7C0FA064604E0FFF7BCFA801B02286F
:101030002FD820688001F7D4D5E90962D5E90701E6
:101040001B4B570895F82C20084303EB074343EA52
:101050008611084340EA026040F00050CAF80000E0
:10106000206840F080702060FFF79CFA054606E09B
:1010700015E000BFFFF796FA401B022809D8206848
:101080008001F7D50BE000BFFFF78CFA401B022868
:1010900002D90320BDE8F88F20688001F4D4002035
:1010A000F8E70120F6E70000083802400070004031
:1010B0000000FFFF401EB0F1807F10B501D301207A
:1010C00010BD4FF0E02460610F21601700F09FFA1F
:1010D0000020A0610721216110BDFEE710B586B098
:1010E00014216846FFF7C4F82548016841F0100153
:1010F0000160016801F010010591016841F00101F2
:101100000160016801F001010591016841F00201EF
:101110000160016801F002010591016841F48071EC
:101120000160016801F480710591016841F00401DA
:101130000160016801F004010591016841F080013E
:101140000160016801F080010591016841F008012A
:101150000160006800220B4C022100F0080005909D
:101160002046FFF71AFA00210220009001222046B3
:10117000CDE9012103916946FFF71CF906B010BDC6
:1011800030380240002002402DE9F0410B4A002196
:101190000B4802230424560D1025C0E90561C161E6
:1011A0001727016280E8BC00FFF796FB002803D0F8
:1011B000BDE8F041FFF79AB8BDE8F081001000A04B
:1011C00020000020FEE77047704730B50122002163
:1011D00095B01306150205240794CDE90D51CDE90C
:1011E0000F130C9110231291940513911491CDE9D2
:1011F0000112CDE90332CDE9051401AA41F2883389
:1012000007A9FFF7CFFA002801D0FFF76FF815B054
:1012100030BD2DE9F0434B6A4FF040652BB1AA4237
:1012200003D004688B6A5B1E23618B69002B68D036
:101230000C6AB4B303688C68DC61CC69FCB1D1E999
:101240000B38D1F824C04E6B8F8A43EA080346EA74
:101250000C0633430E6A43EA8743D1E9037C43EA31
:101260000C0333438E693B430F68234304683343C5
:101270003B4365E0006849688161BDE8F083D1E9DE
:101280000B364F6A4C6B8D8A33433C430E692343C4
:101290000C6A43EA85438D693343096823432B4332
:1012A00062E0FFE7CC69B4F1000918D0D1E90B483E
:1012B0004F6A4E6BB1F814C044EA08043E430F680D
:1012C0003443CE6844EA8C44344344EA09041C4362
:1012D00003683C431443AA425C61CBD1CDE7D1E91A
:1012E0000B464F6A4D6BB1F814C034433D43006860
:1012F0002C43096844EA8C441C430C431443446166
:10130000BBE70B6AABB303688C68DC61CC69E4B102
:10131000D1E90B38D1F824C04E6B8F8A43EA080319
:1013200046EA0C0633430E6A43EA8743D1E9037C5D
:1013300043EA0C0333438E693B432343046833433E
:101340001343AA42636195D197E7D1E90B364F6AFF
:101350004C6B8D8A33433C430E6923430C6A43EA4A
:10136000854389693343234300680B431343436137
:1013700083E7FFE7CC6984B1D1E90B384F6A4E6B44
:10138000B1F814C043EA08033E433343CE6843EA4E
:101390008C43334323430468D2E74C6A002C9DD02E
:1013A000D1E90B368F8A4D6B0168334325432B43BC
:1013B00043EA8740104348615FE7000030B58FB0D3
:1013C0000546002141F288344FF48072852306924D
:1013D00010040093059101220791CDE908102846D9
:1013E0000B910C910A9222460D916946FFF730FA53
:1013F00008B1FEF77BFF0EA922462846FFF736FB11
:1014000008B1FEF773FF134800F04AF8F02081217D
:10141000009190FAA0F29DF838000A21B2FA82F207
:1014200020F0F00091400843224669468DF83800CC
:101430002846FFF70DFA08B1FEF758FF0EA922461D
:101440002846FFF775FB002801D0FEF74FFF0FB0CD
:1014500030BD0000200000202DE9F04198461646DE
:101460000F460446069D12E0681C10D02DB1FFF710
:1014700099F8A0EB0800A84209D9042084F841009B
:10148000606C40F0010060640120BDE8F0812068DC
:101490008068384000D00120B042E5D10020F4E758
:1014A000F0B595B00646002441F288354FF48071BE
:1014B0002A4606200690CDE90C140E9406A9304663
:1014C0000F940B94119412941394FFF7C1F908B17F
:1014D000FEF70CFF02204FF0807CCDF83CC04305A6
:1014E0000090102201210391CDE9044305270697BE
:1014F000CDE9010206A92B466A463046FFF752F9AC
:10150000002801D0FEF7F2FE15B0F0BD7047FFF7DE
:101510004FB8000030B593B030216846FEF7A8FE02
:1015200014210CA8FEF7A4FEFFF7F6F82048016886
:1015300041F080510160006800F0805011901D481A
:10154000016841F4404101600068022419230893B6
:1015500000F44040119001204FF4D8758205010439
:10156000CDE90642CDE909540B94CDE90001684666
:10157000FFF704FC08B1FEF7B9FEFFF797F808B1D2
:10158000FEF7B4FE0EAD00214FF4A0524FF480538D
:1015900085E80E000F20CDE90C0407210CA8FFF709
:1015A00025FB002801D0FEF7A1FE13B030BD0000DE
:1015B0004038024000700040104A30B510481468AE
:1015C00000210F4B44F470041460083305680D4A81
:1015D0000D4C45F00105056019600368051D1340B9
:1015E000074A03600C322C600568E305034C25F4C0
:1015F00080250560803C1160236030BD88ED00E0EF
:1016000000380240FFFFF6FE10300024FEE7090715
:1016100000284FEA116104DB00F1E02080F800149B
:10162000704700F00F0000F1E02080F8141D7047B3
:1016300002E008C8121F08C1002AFAD1704770479B
:10164000002001E001C1121F002AFBD170470000F9
:10165000FEF7B6FFFFF75EFFFFF740FDFFF794FDD3
:10166000504E00200546411C355488B20A28FAD352
:101670004C4C4FF4807A4FF40051383CA4F14C00AC
:101680002562E5622563C4F818A06563E160FFF791
:1016900007FFDFF814B14FF48067E761D8202060BE
:1016A000214641F28832DBF80000656265616060C6
:1016B000A1F14C00FFF7CCF808B1FEF717FE39484E
:1016C0008438FFF782FD37488438FFF7E9FE354953
:1016D000B8460A27C4F81C8032222260383941F209
:1016E00088324FF04079C4E90997A1F14C00FFF727
:1016F000AFF808B1FEF7FAFD2B4941F288322948CC
:10170000091D8438FFF714FA08B1FEF7EFFD2548EC
:101710008438FFF75AFD23488438FFF74FFE6B23C8
:1017200023604FF40051E160C4E906A8DBF8001023
:1017300041F288386761424661601A49C4E9085934
:10174000C4E90A7538392563A1F14C006563FFF7D8
:101750007FF808B1FEF7CAFD12494246A1F18400A4
:10176000FFF784F908B1FEF7C1FD0F4A00210F48C9
:10177000121D735C545CA34204D001220221FEF7C7
:101780000CFFFEE7491C89B20A29F2D34FF47A759F
:10179000044602212046FEF7F9FE2846FEF7F8FD32
:1017A000F7E70000A4000020000000200020024015
:1017B0000000000000000000010203040607080901
:1017C000E01700080000002020000000301600088C
:1017D00000180008200000209004000040160008B7
:1017E00000000000303132333435363738390000EC
:1017F0000100000010000000000000000024F400C0
:04000005080001C925
:00000001FF
